:100000000C9462000C948A000C948A000C948A0070
:100010000C948A000C948A000C948A000C948A0038
:100020000C948A000C948A000C948A000C948A0028
:100030000C948A000C948A000C948A000C948A0018
:100040000C940E020C948A000C947E020C945802BC
:100050000C948A000C948A000C948A000C948A00F8
:100060000C948A000C948A000000000024002700F1
:100070002A000000000023002600290000000000E4
:10008000250028002B0004040404040404040202D4
:100090000202020203030303030301020408102007
:1000A0004080010204081020010204081020000012
:1000B0000008000201000003040700000000000027
:1000C0000000890411241FBECFEFD8E0DEBFCDBFF2
:1000D00011E0A0E0B1E0ECE7F9E002C005900D927C
:1000E000A634B107D9F721E0A6E4B1E001C01D9222
:1000F000A83FB207E1F710E0C2E6D0E004C02197C4
:10010000FE010E94B604C136D107C9F70E94B002B1
:100110000C94BC040C940000833081F028F48130EE
:1001200099F08230A9F008958730A9F08830C9F09D
:100130008430B1F4809180008F7D03C08091800075
:100140008F7780938000089584B58F7784BD08955C
:1001500084B58F7DFBCF8091B0008F778093B00006
:1001600008958091B0008F7DF9CF1F93CF93DF93D7
:10017000282F30E0F901E255FF4F8491F901E6564E
:10018000FF4FD491F901EA57FF4FC491CC23A9F056
:10019000162F81110E948C00EC2FF0E0EE0FFF1F54
:1001A000E458FF4FA591B4918FB7F894EC911111D9
:1001B00008C0D095DE23DC938FBFDF91CF911F91D4
:1001C0000895DE2BF8CFAF92BF92CF92DF92EF92DD
:1001D000FF920F931F93CF93DF936C017B018B01F1
:1001E000040F151FEB015E01AE18BF08C017D10741
:1001F00059F06991D601ED91FC910190F081E02DCB
:10020000C6010995892B79F7C501DF91CF911F911F
:100210000F91FF90EF90DF90CF90BF90AF90089537
:10022000FC01538D448D252F30E0842F90E0821BFC
:10023000930B541710F0CF96089501970895FC0181
:10024000918D828D981761F0A28DAE0FBF2FB11DD9
:100250005D968C91928D9F5F9F73928F90E0089531
:100260008FEF9FEF0895FC01918D828D981731F0EB
:10027000828DE80FF11D858D90E008958FEF9FEF3F
:100280000895FC01918D228D892F90E0805C9F4F15
:10029000821B91098F73992708958BE591E00E9445
:1002A000410121E0892B09F420E0822F089580E0AC
:1002B00090E0892B29F00E944D0181110C940000DF
:1002C0000895FC01A48DA80FB92FB11DA35ABF4FEB
:1002D0002C91848D90E001968F739927848FA68945
:1002E000B7892C93A089B1898C91837080648C9399
:1002F000938D848D981306C00288F389E02D808148
:100300008F7D80830895EF92FF920F931F93CF9379
:10031000DF93EC0181E0888F9B8D8C8D98131AC040
:10032000E889F989808185FF15C09FB7F894EE8927
:10033000FF896083E889F989808183708064808384
:100340009FBF81E090E0DF91CF911F910F91FF90CF
:10035000EF900895F62E0B8D10E00F5F1F4F0F7377
:100360001127E02E8C8D8E110CC00FB607FCFACF32
:10037000E889F989808185FFF5CFCE010E9461016E
:10038000F1CFEB8DEC0FFD2FF11DE35AFF4FF08203
:100390009FB7F8940B8FEA89FB8980818062CFCF69
:1003A000CF93DF93EC01888D8823B9F0AA89BB89AC
:1003B000E889F9898C9185FD03C0808186FD0DC097
:1003C0000FB607FCF7CF8C9185FFF2CF808185FFB8
:1003D000EDCFCE010E946101E9CFDF91CF91089569
:1003E000FC0101900020E9F73197AF01481B590B40
:1003F000BC018BE591E00C94E300CF93DF93682F71
:100400008BE591E00E948301EC0185E291E00E947E
:10041000F0018C0F9D1FDF91CF9108951F920F92D5
:100420000FB60F9211242F933F938F939F93AF9307
:10043000BF938091570190915801A0915901B091BB
:100440005A013091560123E0230F2D3758F50196BC
:10045000A11DB11D2093560180935701909358011F
:10046000A0935901B0935A01809152019091530188
:10047000A0915401B09155010196A11DB11D809329
:10048000520190935301A0935401B0935501BF9131
:10049000AF919F918F913F912F910F900FBE0F9031
:1004A0001F90189526E8230F0296A11DB11DD2CFEB
:1004B0001F920F920FB60F9211242F933F934F93D9
:1004C0005F936F937F938F939F93AF93BF93EF93BC
:1004D000FF938BE591E00E946101FF91EF91BF9145
:1004E000AF919F918F917F916F915F914F913F91CC
:1004F0002F910F900FBE0F901F9018951F920F9283
:100500000FB60F9211242F938F939F93EF93FF9326
:10051000E0916B01F0916C018081E0917101F091AB
:10052000720182FD1BC09081809174018F5F8F7377
:1005300020917501821741F0E0917401F0E0E55AD5
:10054000FE4F958F80937401FF91EF919F918F9152
:100550002F910F900FBE0F901F9018958081F4CFB0
:10056000CF93DF9300D01F92CDB7DEB7789484B5D8
:10057000826084BD84B5816084BD85B5826085BD9F
:1005800085B5816085BD80916E00816080936E002D
:10059000109281008091810082608093810080911F
:1005A00081008160809381008091800081608093D0
:1005B00080008091B10084608093B1008091B00090
:1005C00081608093B00080917A00846080937A008B
:1005D00080917A00826080937A0080917A008160B5
:1005E00080937A0080917A00806880937A001092DC
:1005F000C100E0916B01F0916C0182E08083E09199
:100600006701F09168011082E0916901F0916A013F
:100610008FEC808310927301E0916F01F091700173
:1006200086E08083E0916D01F0916E0180818061B0
:100630008083E0916D01F0916E01808188608083FC
:10064000E0916D01F0916E01808180688083E0917E
:100650006D01F0916E0180818F7D808305E211E054
:1006600021E231E03B832A83EA81FB818191FB8394
:10067000EA8390E0FC01E656FF4F24918A579F4F92
:10068000FC018491882399F090E0880F991FFC0168
:10069000E859FF4FA591B491FC01E458FF4F8591B3
:1006A00094918FB7F894EC91E22BEC938FBF61E0BB
:1006B000EA81FB81319780810E94B5002A813B81CC
:1006C0000217130789F621E231E0AEE1B1E08D9126
:1006D00090E0FC01E656FF4F44918A579F4FFC0182
:1006E00084918823E9F090E0880F991FFC01E85974
:1006F000FF4F659174917B836A83FC01E458FF4F3F
:10070000659174919FB7F894EA81FB815081842FA1
:10071000809585238083FB018081482B40839FBF88
:100720002A173B07A1F688E291E00E94F00185E2DA
:1007300091E00E94F0016FE0462E512C70E0672E90
:1007400070E0772E8FB7F894809057019090580101
:10075000A0905901B0905A018FBF51E2E52E51E0AF
:10076000F52E1B821A82F70121907F0160E0822D15
:100770000E94B500C2010197F1F74EE1C42E41E09D
:10078000D42E10E000E0F60121916F0130E0F90174
:10079000E255FF4F8491F901E656FF4F449149839A
:1007A000F901EA57FF4F3490332021F181110E9463
:1007B0008C00E32DF0E0EE0FFF1FEE58FF4FA591E8
:1007C000B491EC915981E523A9F00F5F1F4F0330DD
:1007D0001105C9F661E0822D0E94B5002A813B8196
:1007E0002F5F3F4F3B832A832430310509F0BBCF75
:1007F00080E012C061E0822D0E94B5008A819B8159
:10080000880F991F6A817B81680F791F6E5E7E4F0A
:10081000600F711FFB01808190915101981751F079
:100820008093510180924D0190924E01A0924F0110
:10083000B092500180914D0190914E01A0914F01D5
:10084000B0915001B501A401481B590B6A0B7B0BF9
:10085000DB01CA018897A105B105B0F08091510173
:1008600090914C01981781F080934C018823F1F10D
:1008700080934B018092470190924801A0924901D8
:10088000B0924A011092460180914B01882311F1E8
:100890008091460181111EC08091470190914801CD
:1008A000A0914901B0914A01881A990AAA0ABB0A83
:1008B0005CE2851651E09506A104B10458F08FE37F
:1008C00091E00E94F00180914B010E94FD0181E0C6
:1008D000809346016114710409F434CF0E944D01E4
:1008E000882309F42FCF0E9400002CCF80914B0168
:1008F000882361F080914601811108C088E391E06E
:100900000E94F00180914B010E94FD0110924B0169
:10091000BBCFEBE5F1E01382128288EE93E0A0E01A
:10092000B0E084839583A683B78384E091E09183CC
:10093000808385EC90E09587848784EC90E09787AE
:10094000868780EC90E0918B808B81EC90E0938B9C
:10095000828B82EC90E0958B848B86EC90E0978B79
:10096000868B118E128E138E148E0895EE0FFF1F3C
:0C0970000590F491E02D0994F894FFCF5D
:10097C00000000008301E3001001D00141011F01C0
:10098C0033013132333435363738392A30230607C0
:10099C0008040203050D0A005B41726475696E6FF1
:1009AC002072656164795D0050524553533A00489A
:0609BC004F4C443A00001C
:00000001FF
