:100000000C9462000C948A000C948A000C948A0070
:100010000C948A000C948A000C948A000C948A0038
:100020000C948A000C948A000C948A000C948A0028
:100030000C948A000C948A000C948A000C948A0018
:100040000C940E020C948A000C947E020C945802BC
:100050000C948A000C948A000C948A000C948A00F8
:100060000C948A000C948A000000000024002700F1
:100070002A000000000023002600290000000000E4
:10008000250028002B0004040404040404040202D4
:100090000202020203030303030301020408102007
:1000A0004080010204081020010204081020000012
:1000B0000008000201000003040700000000000027
:1000C0000000550411241FBECFEFD8E0DEBFCDBF26
:1000D00011E0A0E0B1E0E4E1F9E002C005900D928A
:1000E000A634B107D9F721E0A6E4B1E001C01D9222
:1000F000A63FB207E1F710E0C2E6D0E004C02197C6
:10010000FE010E948204C136D107C9F70E94B002E5
:100110000C9488040C940000833081F028F4813022
:1001200099F08230A9F008958730A9F08830C9F09D
:100130008430B1F4809180008F7D03C08091800075
:100140008F7780938000089584B58F7784BD08955C
:1001500084B58F7DFBCF8091B0008F778093B00006
:1001600008958091B0008F7DF9CF1F93CF93DF93D7
:10017000282F30E0F901E255FF4F8491F901E6564E
:10018000FF4FD491F901EA57FF4FC491CC23A9F056
:10019000162F81110E948C00EC2FF0E0EE0FFF1F54
:1001A000E458FF4FA591B4918FB7F894EC911111D9
:1001B00008C0D095DE23DC938FBFDF91CF911F91D4
:1001C0000895DE2BF8CFAF92BF92CF92DF92EF92DD
:1001D000FF920F931F93CF93DF936C017B018B01F1
:1001E000040F151FEB015E01AE18BF08C017D10741
:1001F00059F06991D601ED91FC910190F081E02DCB
:10020000C6010995892B79F7C501DF91CF911F911F
:100210000F91FF90EF90DF90CF90BF90AF90089537
:10022000FC01538D448D252F30E0842F90E0821BFC
:10023000930B541710F0CF96089501970895FC0181
:10024000918D828D981761F0A28DAE0FBF2FB11DD9
:100250005D968C91928D9F5F9F73928F90E0089531
:100260008FEF9FEF0895FC01918D828D981731F0EB
:10027000828DE80FF11D858D90E008958FEF9FEF3F
:100280000895FC01918D228D892F90E0805C9F4F15
:10029000821B91098F739927089589E591E00E9447
:1002A000410121E0892B09F420E0822F089580E0AC
:1002B00090E0892B29F00E944D0181110C940000DF
:1002C0000895FC01A48DA80FB92FB11DA35ABF4FEB
:1002D0002C91848D90E001968F739927848FA68945
:1002E000B7892C93A089B1898C91837080648C9399
:1002F000938D848D981306C00288F389E02D808148
:100300008F7D80830895EF92FF920F931F93CF9379
:10031000DF93EC0181E0888F9B8D8C8D98131AC040
:10032000E889F989808185FF15C09FB7F894EE8927
:10033000FF896083E889F989808183708064808384
:100340009FBF81E090E0DF91CF911F910F91FF90CF
:10035000EF900895F62E0B8D10E00F5F1F4F0F7377
:100360001127E02E8C8D8E110CC00FB607FCFACF32
:10037000E889F989808185FFF5CFCE010E9461016E
:10038000F1CFEB8DEC0FFD2FF11DE35AFF4FF08203
:100390009FB7F8940B8FEA89FB8980818062CFCF69
:1003A000CF93DF93EC01888D8823B9F0AA89BB89AC
:1003B000E889F9898C9185FD03C0808186FD0DC097
:1003C0000FB607FCF7CF8C9185FFF2CF808185FFB8
:1003D000EDCFCE010E946101E9CFDF91CF91089569
:1003E000FC0101900020E9F73197AF01481B590B40
:1003F000BC0189E591E00C94E300CF93DF93682F73
:1004000089E591E00E948301EC0185E291E00E9480
:10041000F0018C0F9D1FDF91CF9108951F920F92D5
:100420000FB60F9211242F933F938F939F93AF9307
:10043000BF938091550190915601A0915701B091C1
:1004400058013091540123E0230F2D3758F50196C0
:10045000A11DB11D20935401809355019093560125
:10046000A0935701B0935801809150019091510190
:10047000A0915201B09153010196A11DB11D80932D
:10048000500190935101A0935201B0935301BF9139
:10049000AF919F918F913F912F910F900FBE0F9031
:1004A0001F90189526E8230F0296A11DB11DD2CFEB
:1004B0001F920F920FB60F9211242F933F934F93D9
:1004C0005F936F937F938F939F93AF93BF93EF93BC
:1004D000FF9389E591E00E946101FF91EF91BF9147
:1004E000AF919F918F917F916F915F914F913F91CC
:1004F0002F910F900FBE0F901F9018951F920F9283
:100500000FB60F9211242F938F939F93EF93FF9326
:10051000E0916901F0916A018081E0916F01F091B1
:10052000700182FD1BC09081809172018F5F8F737B
:1005300020917301821741F0E0917201F0E0E75AD7
:10054000FE4F958F80937201FF91EF919F918F9154
:100550002F910F900FBE0F901F9018958081F4CFB0
:10056000789484B5826084BD84B5816084BD85B58E
:10057000826085BD85B5816085BD80916E0081609A
:1005800080936E0010928100809181008260809340
:100590008100809181008160809381008091800042
:1005A0008160809380008091B10084608093B1006D
:1005B0008091B00081608093B00080917A00846067
:1005C00080937A0080917A00826080937A00809193
:1005D0007A00816080937A0080917A0080688093AD
:1005E0007A001092C100E0916901F0916A0182E005
:1005F0008083E0916501F09166011082E0916701CE
:10060000F09168018FEC808310927101E0916D018F
:10061000F0916E0186E08083E0916B01F0916C01B6
:10062000808180618083E0916B01F0916C01808119
:1006300088608083E0916B01F0916C01808180681B
:100640008083E0916B01F0916C0180818F7D8083CC
:1006500005E211E0C1E2D1E0899190E0FC01E656AB
:10066000FF4F24918A579F4FFC018491882399F072
:1006700090E0880F991FFC01E859FF4FA591B491B4
:10068000FC01E458FF4F859194918FB7F894EC9159
:10069000E22BEC938FBF61E0FE01319780810E94D5
:1006A000B5000C171D07C1F621E231E0AEE1B1E063
:1006B0008D9190E0FC01E656FF4F44918A579F4F81
:1006C000FC0184918823C9F090E0880F991FFC01F8
:1006D000E859FF4FC591D491FC01E458FF4F659153
:1006E00074919FB7F8945881842F809585238883CF
:1006F000EB01E8814E2B48839FBF2A173B07C1F6C9
:1007000088E291E00E94F00185E291E00E94F00110
:1007100060E0A62E60E0B62E51E2E52E51E0F52E07
:10072000D0E0C0E0F70181907F0160E0882D0E9459
:10073000B5004EE1C42E41E0D42E10E000E0F601F9
:1007400021916F0130E0F901E255FF4F8491F901E9
:10075000E656FF4F9490F901EA57FF4F74907720C7
:10076000F1F081110E948C00E72DF0E0EE0FFF1FE9
:10077000EE58FF4FA591B491EC919E2281F00F5F4E
:100780001F4F03301105D9F661E0882D0E94B50096
:100790002196C430D10509F0C5CFC0E00EC061E09C
:1007A000882D0E94B500CE01880F991FC80FD91F50
:1007B000CE5EDE4FC00FD11FC8812FB7F894809155
:1007C000550190915601A0915701B09158012FBF4A
:1007D00020914F01CC2309F457C02C17A9F1409167
:1007E0004B0150914C0160914D0170914E018C0173
:1007F0009D01041B150B260B370BB901A8014932CB
:10080000510561057105A0F080934701909348015F
:10081000A0934901B0934A01C0934F011092460141
:1008200080934B0190934C01A0934D01B0934E01E6
:10083000A114B10409F470CF0E944D01882309F47A
:100840006BCF0E94000068CF209146012111F0CFAC
:1008500040914701509148016091490170914A01CE
:10086000841B950BA60BB70B8D329140A105B105EA
:10087000F8F288E391E00E94F0018C2F0E94FD01C4
:1008800081E080934601D4CF222361F0809146011C
:10089000811108C08EE391E00E94F00180914F0128
:1008A0000E94FD0110924F01C3CFE9E5F1E01382F0
:1008B000128288EE93E0A0E0B0E084839583A68363
:1008C000B78384E091E09183808385EC90E0958705
:1008D000848784EC90E09787868780EC90E0918B0A
:1008E000808B81EC90E0938B828B82EC90E0958BF7
:1008F000848B86EC90E0978B868B118E128E138EF4
:10090000148E0895EE0FFF1F0590F491E02D0994C9
:04091000F894FFCF89
:10091400000000008301E3001001D00141011F0128
:1009240033013132333435363738392A3023060728
:1009340008040203050D0A005B41726475696E6F59
:100944002072656164795D00484F4C443A0050520E
:060954004553533A000078
:00000001FF
